{
  "_format": "hh-sol-artifact-1",
  "contractName": "Source_bridge",
  "sourceName": "contracts/Source_bridge.sol",
  "abi": [
    {
      "inputs": [],
      "stateMutability": "nonpayable",
      "type": "constructor"
    },
    {
      "anonymous": false,
      "inputs": [
        {
          "indexed": false,
          "internalType": "address",
          "name": "user",
          "type": "address"
        },
        {
          "indexed": false,
          "internalType": "address",
          "name": "token",
          "type": "address"
        },
        {
          "indexed": false,
          "internalType": "uint256",
          "name": "amount",
          "type": "uint256"
        },
        {
          "indexed": false,
          "internalType": "uint256",
          "name": "nonce",
          "type": "uint256"
        }
      ],
      "name": "Locked",
      "type": "event"
    },
    {
      "inputs": [
        {
          "internalType": "address",
          "name": "",
          "type": "address"
        },
        {
          "internalType": "address",
          "name": "",
          "type": "address"
        }
      ],
      "name": "LockAmtStore",
      "outputs": [
        {
          "internalType": "uint256",
          "name": "",
          "type": "uint256"
        }
      ],
      "stateMutability": "view",
      "type": "function"
    },
    {
      "inputs": [
        {
          "internalType": "address",
          "name": "token",
          "type": "address"
        },
        {
          "internalType": "uint256",
          "name": "amount",
          "type": "uint256"
        }
      ],
      "name": "lockTokens",
      "outputs": [],
      "stateMutability": "nonpayable",
      "type": "function"
    },
    {
      "inputs": [],
      "name": "nonce",
      "outputs": [
        {
          "internalType": "uint256",
          "name": "",
          "type": "uint256"
        }
      ],
      "stateMutability": "view",
      "type": "function"
    }
  ],
  "bytecode": "0x6080604052348015600f57600080fd5b50600080819055506106cd806100266000396000f3fe608060405234801561001057600080fd5b50600436106100415760003560e01c8063151a631214610046578063affed0e014610076578063b1c2558614610094575b600080fd5b610060600480360381019061005b9190610333565b6100b0565b60405161006d919061038c565b60405180910390f35b61007e6100d5565b60405161008b919061038c565b60405180910390f35b6100ae60048036038101906100a991906103d3565b6100db565b005b6001602052816000526040600020602052806000526040600020600091509150505481565b60005481565b6000811161011e576040517f08c379a000000000000000000000000000000000000000000000000000000000815260040161011590610470565b60405180910390fd5b60008273ffffffffffffffffffffffffffffffffffffffff166323b872dd3330856040518463ffffffff1660e01b815260040161015d9392919061049f565b6020604051808303816000875af115801561017c573d6000803e3d6000fd5b505050506040513d601f19601f820116820180604052508101906101a0919061050e565b9050806101e2576040517f08c379a00000000000000000000000000000000000000000000000000000000081526004016101d990610587565b60405180910390fd5b81600160003373ffffffffffffffffffffffffffffffffffffffff1673ffffffffffffffffffffffffffffffffffffffff16815260200190815260200160002060008573ffffffffffffffffffffffffffffffffffffffff1673ffffffffffffffffffffffffffffffffffffffff168152602001908152602001600020600082825461026e91906105d6565b925050819055507f967ad762aa9070ada8db64577288e214771e89667066ae38e8750cb8a86c54293384846000546040516102ac949392919061060a565b60405180910390a16000808154809291906102c69061064f565b9190505550505050565b600080fd5b600073ffffffffffffffffffffffffffffffffffffffff82169050919050565b6000610300826102d5565b9050919050565b610310816102f5565b811461031b57600080fd5b50565b60008135905061032d81610307565b92915050565b6000806040838503121561034a576103496102d0565b5b60006103588582860161031e565b92505060206103698582860161031e565b9150509250929050565b6000819050919050565b61038681610373565b82525050565b60006020820190506103a1600083018461037d565b92915050565b6103b081610373565b81146103bb57600080fd5b50565b6000813590506103cd816103a7565b92915050565b600080604083850312156103ea576103e96102d0565b5b60006103f88582860161031e565b9250506020610409858286016103be565b9150509250929050565b600082825260208201905092915050565b7f416d6f756e74206d757374206265203e30000000000000000000000000000000600082015250565b600061045a601183610413565b915061046582610424565b602082019050919050565b600060208201905081810360008301526104898161044d565b9050919050565b610499816102f5565b82525050565b60006060820190506104b46000830186610490565b6104c16020830185610490565b6104ce604083018461037d565b949350505050565b60008115159050919050565b6104eb816104d6565b81146104f657600080fd5b50565b600081519050610508816104e2565b92915050565b600060208284031215610524576105236102d0565b5b6000610532848285016104f9565b91505092915050565b7f5472616e73666572204661696c65640000000000000000000000000000000000600082015250565b6000610571600f83610413565b915061057c8261053b565b602082019050919050565b600060208201905081810360008301526105a081610564565b9050919050565b7f4e487b7100000000000000000000000000000000000000000000000000000000600052601160045260246000fd5b60006105e182610373565b91506105ec83610373565b9250828201905080821115610604576106036105a7565b5b92915050565b600060808201905061061f6000830187610490565b61062c6020830186610490565b610639604083018561037d565b610646606083018461037d565b95945050505050565b600061065a82610373565b91507fffffffffffffffffffffffffffffffffffffffffffffffffffffffffffffffff820361068c5761068b6105a7565b5b60018201905091905056fea26469706673582212208988431cc475bb42cdd32f32e5476f7c923b6cdd33271109eb7ee7de5ef801ae64736f6c634300081e0033",
  "linkReferences": {},
  "deployedLinkReferences": {}
}