{
  "_format": "hh-sol-artifact-1",
  "contractName": "Dest_Bridge",
  "sourceName": "contracts/Dest_Bridge.sol",
  "abi": [
    {
      "inputs": [
        {
          "internalType": "address",
          "name": "initialOwner",
          "type": "address"
        }
      ],
      "stateMutability": "nonpayable",
      "type": "constructor"
    },
    {
      "inputs": [
        {
          "internalType": "address",
          "name": "owner",
          "type": "address"
        }
      ],
      "name": "OwnableInvalidOwner",
      "type": "error"
    },
    {
      "inputs": [
        {
          "internalType": "address",
          "name": "account",
          "type": "address"
        }
      ],
      "name": "OwnableUnauthorizedAccount",
      "type": "error"
    },
    {
      "anonymous": false,
      "inputs": [
        {
          "indexed": true,
          "internalType": "address",
          "name": "user",
          "type": "address"
        },
        {
          "indexed": true,
          "internalType": "address",
          "name": "token",
          "type": "address"
        },
        {
          "indexed": false,
          "internalType": "uint256",
          "name": "amount",
          "type": "uint256"
        },
        {
          "indexed": false,
          "internalType": "uint256",
          "name": "nonce",
          "type": "uint256"
        }
      ],
      "name": "Mint",
      "type": "event"
    },
    {
      "anonymous": false,
      "inputs": [
        {
          "indexed": true,
          "internalType": "address",
          "name": "previousOwner",
          "type": "address"
        },
        {
          "indexed": true,
          "internalType": "address",
          "name": "newOwner",
          "type": "address"
        }
      ],
      "name": "OwnershipTransferred",
      "type": "event"
    },
    {
      "inputs": [
        {
          "internalType": "uint256",
          "name": "",
          "type": "uint256"
        }
      ],
      "name": "doneNonces",
      "outputs": [
        {
          "internalType": "bool",
          "name": "",
          "type": "bool"
        }
      ],
      "stateMutability": "view",
      "type": "function"
    },
    {
      "inputs": [
        {
          "internalType": "address",
          "name": "user",
          "type": "address"
        },
        {
          "internalType": "address",
          "name": "token",
          "type": "address"
        },
        {
          "internalType": "uint256",
          "name": "amount",
          "type": "uint256"
        },
        {
          "internalType": "uint256",
          "name": "nonce",
          "type": "uint256"
        }
      ],
      "name": "mintTokens",
      "outputs": [],
      "stateMutability": "nonpayable",
      "type": "function"
    },
    {
      "inputs": [],
      "name": "owner",
      "outputs": [
        {
          "internalType": "address",
          "name": "",
          "type": "address"
        }
      ],
      "stateMutability": "view",
      "type": "function"
    },
    {
      "inputs": [],
      "name": "renounceOwnership",
      "outputs": [],
      "stateMutability": "nonpayable",
      "type": "function"
    },
    {
      "inputs": [
        {
          "internalType": "address",
          "name": "newOwner",
          "type": "address"
        }
      ],
      "name": "transferOwnership",
      "outputs": [],
      "stateMutability": "nonpayable",
      "type": "function"
    }
  ],
  "bytecode": "0x608060405234801561001057600080fd5b50604051610a81380380610a81833981810160405281019061003291906101e2565b80600073ffffffffffffffffffffffffffffffffffffffff168173ffffffffffffffffffffffffffffffffffffffff16036100a55760006040517f1e4fbdf700000000000000000000000000000000000000000000000000000000815260040161009c919061021e565b60405180910390fd5b6100b4816100bb60201b60201c565b5050610239565b60008060009054906101000a900473ffffffffffffffffffffffffffffffffffffffff169050816000806101000a81548173ffffffffffffffffffffffffffffffffffffffff021916908373ffffffffffffffffffffffffffffffffffffffff1602179055508173ffffffffffffffffffffffffffffffffffffffff168173ffffffffffffffffffffffffffffffffffffffff167f8be0079c531659141344cd1fd0a4f28419497f9722a3daafe3b4186f6b6457e060405160405180910390a35050565b600080fd5b600073ffffffffffffffffffffffffffffffffffffffff82169050919050565b60006101af82610184565b9050919050565b6101bf816101a4565b81146101ca57600080fd5b50565b6000815190506101dc816101b6565b92915050565b6000602082840312156101f8576101f761017f565b5b6000610206848285016101cd565b91505092915050565b610218816101a4565b82525050565b6000602082019050610233600083018461020f565b92915050565b610839806102486000396000f3fe608060405234801561001057600080fd5b50600436106100575760003560e01c8063715018a61461005c5780638da5cb5b1461006657806392322ab114610084578063c00fb782146100b4578063f2fde38b146100d0575b600080fd5b6100646100ec565b005b61006e610100565b60405161007b9190610540565b60405180910390f35b61009e60048036038101906100999190610596565b610129565b6040516100ab91906105de565b60405180910390f35b6100ce60048036038101906100c99190610625565b610149565b005b6100ea60048036038101906100e5919061068c565b610326565b005b6100f46103ac565b6100fe6000610433565b565b60008060009054906101000a900473ffffffffffffffffffffffffffffffffffffffff16905090565b60016020528060005260406000206000915054906101000a900460ff1681565b6101516103ac565b600073ffffffffffffffffffffffffffffffffffffffff168473ffffffffffffffffffffffffffffffffffffffff16036101c0576040517f08c379a00000000000000000000000000000000000000000000000000000000081526004016101b790610716565b60405180910390fd5b6001600082815260200190815260200160002060009054906101000a900460ff1615610221576040517f08c379a000000000000000000000000000000000000000000000000000000000815260040161021890610782565b60405180910390fd5b600180600083815260200190815260200160002060006101000a81548160ff0219169083151502179055508273ffffffffffffffffffffffffffffffffffffffff166340c10f1985846040518363ffffffff1660e01b81526004016102879291906107b1565b600060405180830381600087803b1580156102a157600080fd5b505af11580156102b5573d6000803e3d6000fd5b505050508273ffffffffffffffffffffffffffffffffffffffff168473ffffffffffffffffffffffffffffffffffffffff167f2f00e3cdd69a77be7ed215ec7b2a36784dd158f921fca79ac29deffa353fe6ee84846040516103189291906107da565b60405180910390a350505050565b61032e6103ac565b600073ffffffffffffffffffffffffffffffffffffffff168173ffffffffffffffffffffffffffffffffffffffff16036103a05760006040517f1e4fbdf70000000000000000000000000000000000000000000000000000000081526004016103979190610540565b60405180910390fd5b6103a981610433565b50565b6103b46104f7565b73ffffffffffffffffffffffffffffffffffffffff166103d2610100565b73ffffffffffffffffffffffffffffffffffffffff1614610431576103f56104f7565b6040517f118cdaa70000000000000000000000000000000000000000000000000000000081526004016104289190610540565b60405180910390fd5b565b60008060009054906101000a900473ffffffffffffffffffffffffffffffffffffffff169050816000806101000a81548173ffffffffffffffffffffffffffffffffffffffff021916908373ffffffffffffffffffffffffffffffffffffffff1602179055508173ffffffffffffffffffffffffffffffffffffffff168173ffffffffffffffffffffffffffffffffffffffff167f8be0079c531659141344cd1fd0a4f28419497f9722a3daafe3b4186f6b6457e060405160405180910390a35050565b600033905090565b600073ffffffffffffffffffffffffffffffffffffffff82169050919050565b600061052a826104ff565b9050919050565b61053a8161051f565b82525050565b60006020820190506105556000830184610531565b92915050565b600080fd5b6000819050919050565b61057381610560565b811461057e57600080fd5b50565b6000813590506105908161056a565b92915050565b6000602082840312156105ac576105ab61055b565b5b60006105ba84828501610581565b91505092915050565b60008115159050919050565b6105d8816105c3565b82525050565b60006020820190506105f360008301846105cf565b92915050565b6106028161051f565b811461060d57600080fd5b50565b60008135905061061f816105f9565b92915050565b6000806000806080858703121561063f5761063e61055b565b5b600061064d87828801610610565b945050602061065e87828801610610565b935050604061066f87828801610581565b925050606061068087828801610581565b91505092959194509250565b6000602082840312156106a2576106a161055b565b5b60006106b084828501610610565b91505092915050565b600082825260208201905092915050565b7f4d696e744272696467653a20696e76616c696420757365720000000000000000600082015250565b60006107006018836106b9565b915061070b826106ca565b602082019050919050565b6000602082019050818103600083015261072f816106f3565b9050919050565b7f4d696e744272696467653a206e6f6e636520616c726561647920757365640000600082015250565b600061076c601e836106b9565b915061077782610736565b602082019050919050565b6000602082019050818103600083015261079b8161075f565b9050919050565b6107ab81610560565b82525050565b60006040820190506107c66000830185610531565b6107d360208301846107a2565b9392505050565b60006040820190506107ef60008301856107a2565b6107fc60208301846107a2565b939250505056fea2646970667358221220845565cc66d9206a47e13f8d6850874425585ef9fee64ccb1e6c38c1a4bd56f364736f6c634300081e0033",
  "linkReferences": {},
  "deployedLinkReferences": {}
}