{
  "_format": "hh-sol-artifact-1",
  "contractName": "Source_bridge",
  "sourceName": "contracts/lockBridge.sol",
  "abi": [
    {
      "anonymous": false,
      "inputs": [
        {
          "indexed": false,
          "internalType": "address",
          "name": "user",
          "type": "address"
        },
        {
          "indexed": false,
          "internalType": "address",
          "name": "token",
          "type": "address"
        },
        {
          "indexed": false,
          "internalType": "uint256",
          "name": "amount",
          "type": "uint256"
        },
        {
          "indexed": false,
          "internalType": "uint256",
          "name": "nonce",
          "type": "uint256"
        }
      ],
      "name": "Locked",
      "type": "event"
    },
    {
      "inputs": [
        {
          "internalType": "address",
          "name": "token",
          "type": "address"
        },
        {
          "internalType": "uint256",
          "name": "amount",
          "type": "uint256"
        }
      ],
      "name": "lockTokens",
      "outputs": [],
      "stateMutability": "nonpayable",
      "type": "function"
    },
    {
      "inputs": [],
      "name": "nonce",
      "outputs": [
        {
          "internalType": "uint256",
          "name": "",
          "type": "uint256"
        }
      ],
      "stateMutability": "view",
      "type": "function"
    }
  ],
  "bytecode": "0x6080604052348015600f57600080fd5b5061062d8061001f6000396000f3fe608060405234801561001057600080fd5b50600436106100365760003560e01c8063affed0e01461003b578063b1c2558614610059575b600080fd5b610043610075565b6040516100509190610289565b60405180910390f35b610073600480360381019061006e9190610333565b61007b565b005b60005481565b600081116100be576040517f08c379a00000000000000000000000000000000000000000000000000000000081526004016100b5906103d0565b60405180910390fd5b60008273ffffffffffffffffffffffffffffffffffffffff166323b872dd3330856040518463ffffffff1660e01b81526004016100fd939291906103ff565b6020604051808303816000875af115801561011c573d6000803e3d6000fd5b505050506040513d601f19601f82011682018060405250810190610140919061046e565b905080610182576040517f08c379a0000000000000000000000000000000000000000000000000000000008152600401610179906104e7565b60405180910390fd5b81600160003373ffffffffffffffffffffffffffffffffffffffff1673ffffffffffffffffffffffffffffffffffffffff16815260200190815260200160002060008573ffffffffffffffffffffffffffffffffffffffff1673ffffffffffffffffffffffffffffffffffffffff168152602001908152602001600020600082825461020e9190610536565b925050819055507f967ad762aa9070ada8db64577288e214771e89667066ae38e8750cb8a86c542933848460005460405161024c949392919061056a565b60405180910390a1600080815480929190610266906105af565b9190505550505050565b6000819050919050565b61028381610270565b82525050565b600060208201905061029e600083018461027a565b92915050565b600080fd5b600073ffffffffffffffffffffffffffffffffffffffff82169050919050565b60006102d4826102a9565b9050919050565b6102e4816102c9565b81146102ef57600080fd5b50565b600081359050610301816102db565b92915050565b61031081610270565b811461031b57600080fd5b50565b60008135905061032d81610307565b92915050565b6000806040838503121561034a576103496102a4565b5b6000610358858286016102f2565b92505060206103698582860161031e565b9150509250929050565b600082825260208201905092915050565b7f416d6f756e74206d757374206265203e30000000000000000000000000000000600082015250565b60006103ba601183610373565b91506103c582610384565b602082019050919050565b600060208201905081810360008301526103e9816103ad565b9050919050565b6103f9816102c9565b82525050565b600060608201905061041460008301866103f0565b61042160208301856103f0565b61042e604083018461027a565b949350505050565b60008115159050919050565b61044b81610436565b811461045657600080fd5b50565b60008151905061046881610442565b92915050565b600060208284031215610484576104836102a4565b5b600061049284828501610459565b91505092915050565b7f5472616e73666572204661696c65640000000000000000000000000000000000600082015250565b60006104d1600f83610373565b91506104dc8261049b565b602082019050919050565b60006020820190508181036000830152610500816104c4565b9050919050565b7f4e487b7100000000000000000000000000000000000000000000000000000000600052601160045260246000fd5b600061054182610270565b915061054c83610270565b925082820190508082111561056457610563610507565b5b92915050565b600060808201905061057f60008301876103f0565b61058c60208301866103f0565b610599604083018561027a565b6105a6606083018461027a565b95945050505050565b60006105ba82610270565b91507fffffffffffffffffffffffffffffffffffffffffffffffffffffffffffffffff82036105ec576105eb610507565b5b60018201905091905056fea2646970667358221220bd1e49eb189594a1697f687b819a04e141b5660729e942c82f8a60ccc5f29e9a64736f6c634300081e0033",
  "linkReferences": {},
  "deployedLinkReferences": {}
}